:100FA8004D697374616B6521212100446976697309
:100FB8006F72206973205A65726F0000000000008C
:100FC8000000000000000000000000000000000019
:0B0FD80000000000000000000000000E
:101037001033300000000000000000000000000036
:021047000000A7
:10104E00EF7007ED2480F5328005ED24C0F532AF48
:04105E0032021086C4
:101062007580FFC291D292D293AF80C293EF20E7F4
:01107200F687
:01107300225A
:10107400AE07121062D291C292C2938E80D293C2F2
:021084009322B5
:10108600AE07121062C291C292D2938E80C2932290
:0B10B5007F01121086E4FDFF02104EC8
:100FE3008B0A8A0B890CEF7005ED24808003ED24B6
:100FF300C0FF121086AB0AAA0BA90C1208F66013E5
:10100300050CE50C7002050B14F91208F6FF12101B
:041013007480E222E1
:101096007F381210867F0F121086E4FDFF02104E75
:080D8300AF47AE46AD45AC449C
:080D8B008F0D8E0C8D0B8C0AFC
:100D9300E4F50EF50FF510F51178127C00FD7BFFDD
:100DA3007A0F79C3FE7F201208D0AC0AEC335022AD
:100DB30074332511F8762DAF0DAE0CAD0BAC0A12C2
:100DC300095E8F0D8E0C8D0B8C0A0511E5117002D7
:100DD3000510E47B0AFAF9F8AF0DAE0CAD0BAC0AC3
:100DE300120F21AE02AF03E50F25E02412F8A60689
:100DF30008A607AF0DAE0CAD0BAC0AE47B0AFAF9FB
:100E0300F8120F218F0D8E0C8D0B8C0A050FE50F39
:100E13007002050EEC4D4E4F70B8E50F450E602580
:100E2300E50F150F7002150EE50F25E02412F808E3
:100E3300E62430FF74332511F8A6070511E5117078
:0C0E430002051080D574332511F8E4F688
:010E4F002280
:100A6000E4F555F556F547F546F545F544E543708B
:100A700003020C93120C948E528F53E5A064F07015
:100A800003020C84C3E55264809480404AD3E5534A
:100A90009409E55264809480503DE47F0AFEFDFC99
:100AA000AB47AA46A945A84412090FA804A905AA5C
:100AB00006AB07AE52EE3395E0FDFCEB2553F54750
:100AC000EA3EF546E93DF545E83CF544E55324307A
:100AD000FF121074020C84C3E553940CE552648039
:100AE00094805003020B74D3E553940FE552648055
:100AF00094804003020B74E55645556003020C8454
:100B0000F55575560185474D85464C85454B8544C1
:100B10004AE5566401455570121210B5120D837BDB
:100B2000007A007933E4FDFF120FE3E553640C45CE
:100B300052700775482B7F2B802BE553640D45526F
:100B4000700775482D7F2D801CE553640E4552704B
:100B50000775482A7F2A800DE553640F45527008B7
:100B600075482F7F2F121074E4F547F546F545F5CB
:0F0B700044020C84E553640B45526003020C5D94
:100B7F00F50875090185475185465085454F8544D0
:100B8F004EE548B42B1AE54D2551F547E54C355048
:100B9F00F546E54B354FF545E54A354EF544806E44
:100BAF00E548B42D1BC3E54D9551F547E54C9550E0
:100BBF00F546E54B954FF545E54A954EF544804E84
:100BCF00E548B42A15AF51AE50AD4FAC4EAB4DAA60
:100BDF004CA94BA84A12090F802CE548B42F2FAF10
:100BEF0051AE50AD4FAC4EEC4D4E4F7006F508F573
:100BFF0009801BAB51AA50A94FA84EAF4DAE4CADBB
:100C0F004BAC4A120F218F478E468D458C44E50918
:100C1F00640145087018FD7F0112104E7F3D1210C0
:100C2F0074120D837B007A0079337D0180127BFF74
:100C3F007A0F79A8E4FDFF120FE37BFF7A0F79B3E8
:0C0C4F007F01120FE3E4F548F555F5565F
:100C5B008027E553640A4552701FF54DF54CF54B53
:100C6B00F54AF551F550F54FF54EF547F546F54577
:100C7B00F544F555F5561210B57554C8AF541554C7
:090C8B00EF7003020A6D80F422EF
:0F10A600E4F54375A885758805D2BAC29780FE18
:03000300020F6584
:100F6500C0E0C0F0C083C082C0D075D000C000C052
:100F750001C002C003C004C005C006C00775430117
:100F8500D297121096120A60D007D006D005D00469
:100F9500D003D002D001D000D0D0D082D083D0F001
:030FA500D0E03267
:03001300020EDCFE
:100EDC00C0E0C0F0C083C082C0D075D000C000C0DC
:100EEC0001C002C003C004C005C006C0071210B583
:100EFC007F08121086754300C297D007D006D00524
:100F0C00D004D003D002D001D000D0D0D082D08376
:050F1C00D0F0D0E0322E
:04104900025700004A
:10101700E4FDFCC3ED9FEC9E5015E4FAFB0BBB000F
:0F102700010AEB64774A70F50DBD00010C80E4FF
:011036002297
:100C940075A0F0E5A064F07003020D7E7F0A7E006B
:100CA400121017E5A064F07003020D7E75A0FF75A5
:100CB400A0F0AFA075A0FF75A00FAEA0EF4E120973
:100CC4006C0D30770D387B0D407D0D707E0D18B79F
:100CD4000D20BB0D28BD0D68BE0D00D70D08DB0D22
:100CE40010DD0D60DE0D48E70CF9EB0D50ED0D58ED
:100CF400EE00000D78E4F557F558807E75570075C1
:100D040058018076755700755802806E75570075C6
:100D140058038066755700755804805E75570075D2
:100D240058058056755700755806804E75570075DE
:100D340058078046755700755808803E75570075EA
:100D44005809803675570075580A802E75570075F6
:100D5400580B802675570075580C801E7557007502
:100D6400580D801675570075580E800E755700750E
:0E0D7400580F8006755700755810AE57AF58CF
:010D8200224E
:03000000020E509D
:0C0E5000787FE4F6D8FD758158020E97FB
:10080000E709F608DFFA8046E709F208DFFA803EDA
:1008100088828C83E709F0A3DFFA8032E309F608C7
:10082000DFFA8078E309F208DFFA807088828C832F
:10083000E309F0A3DFFA806489828A83E0A3F608E3
:10084000DFFA805889828A83E0A3F208DFFA804CBD
:1008500080D280FA80C680D4806980F28033801094
:1008600080A680EA809A80A880DA80E280CA8033FD
:1008700089828A83ECFAE493A3C8C582C8CCC58375
:10088000CCF0A3C8C582C8CCC583CCDFE9DEE78045
:100890000D89828A83E493A3F608DFF9ECFAA9F0C4
:1008A000EDFB2289828A83ECFAE0A3C8C582C8CC1A
:1008B000C583CCF0A3C8C582C8CCC583CCDFEADE33
:1008C000E880DB89828A83E493A3F208DFF980CC95
:1008D00088F0EF60010E4E60C388F0ED2402B4048E
:1008E0000050B9F582EB2402B4040050AF23234535
:0608F00082239008507302
:1008F600BB010689828A83E0225002E722BBFE0200
:09090600E32289828A83E4932232
:10090F00E88FF0A4CC8BF0A42CFCE98EF0A42CFC87
:10091F008AF0EDA42CFCEA8EF0A4CDA8F08BF0A405
:10092F002DCC3825F0FDE98FF0A42CCD35F0FCEB64
:10093F008EF0A4FEA9F0EB8FF0A4CFC5F02ECD3929
:0F094F00FEE43CFCEAA42DCE35F0FDE43CFC2296
:100F2100C2D5E830E70FB2D5E4C39BFBE49AFAE4FB
:100F310099F9E498F8EC30E717B2D5120F57120976
:100F4100CEE4C39BFBE49AFAE499F9E498F88003B0
:100F51001209CE30D50DE4C39FFFE49EFEE49DFD52
:040F6100E49CFC22EE
:0E095E00C3E49FFFE49EFEE49DFDE49CFC22AA
:10096C00D083D082F8E4937012740193700DA3A31A
:10097C0093F8740193F5828883E47374029368602E
:06098C00EFA3A3A380DF2E
:100E5C000210A6E493A3F8E493A34003F68001F2F6
:100E6C0008DFF48029E493A3F85407240CC8C33397
:100E7C00C4540F4420C8834004F456800146F6DF66
:100E8C00E4800B0102040810204080901037E47EAF
:100E9C00019360BCA3FF543F30E509541FFEE4935B
:100EAC00A360010ECF54C025E060A840B8E493A322
:100EBC00FAE493A3F8E493A3C8C582C8CAC583CA4D
:100ECC00F0A3C8C582C8CAC583CADFE9DEE780BE05
:01104D0000A2
:1009920075F008758200EF2FFFEE33FECD33CDCC1C
:1009A20033CCC58233C5829BED9AEC99E58298409F
:1009B2000CF582EE9BFEED9AFDEC99FC0FD5F0D67C
:1009C200E4CEFBE4CDFAE4CCF9A88222B800C1B9A6
:1009D2000059BA002DEC8BF084CFCECDFCE5F0CBE4
:1009E200F97818EF2FFFEE33FEED33FDEC33FCEB1D
:1009F20033FB10D703994004EB99FB0FD8E5E4F9D8
:100A0200FA227818EF2FFFEE33FEED33FDEC33FCC4
:100A1200C933C910D7059BE99A4007EC9BFCE99AB8
:100A2200F90FD8E0E4C9FAE4CCFB2275F010EF2FFD
:100A3200FFEE33FEED33FDCC33CCC833C810D707FD
:100A42009BEC9AE899400AED9BFDEC9AFCE899F838
:0E0A52000FD5F0DAE4CDFBE4CCFAE4C8F922CB
:00000001FF
